{
  "_format": "hh-sol-artifact-1",
  "contractName": "TokenMaster",
  "sourceName": "contracts/TokenMaster.sol",
  "abi": [
    {
      "inputs": [
        {
          "internalType": "string",
          "name": "_name",
          "type": "string"
        },
        {
          "internalType": "string",
          "name": "_symbol",
          "type": "string"
        }
      ],
      "stateMutability": "nonpayable",
      "type": "constructor"
    },
    {
      "anonymous": false,
      "inputs": [
        {
          "indexed": true,
          "internalType": "address",
          "name": "owner",
          "type": "address"
        },
        {
          "indexed": true,
          "internalType": "address",
          "name": "approved",
          "type": "address"
        },
        {
          "indexed": true,
          "internalType": "uint256",
          "name": "tokenId",
          "type": "uint256"
        }
      ],
      "name": "Approval",
      "type": "event"
    },
    {
      "anonymous": false,
      "inputs": [
        {
          "indexed": true,
          "internalType": "address",
          "name": "owner",
          "type": "address"
        },
        {
          "indexed": true,
          "internalType": "address",
          "name": "operator",
          "type": "address"
        },
        {
          "indexed": false,
          "internalType": "bool",
          "name": "approved",
          "type": "bool"
        }
      ],
      "name": "ApprovalForAll",
      "type": "event"
    },
    {
      "anonymous": false,
      "inputs": [
        {
          "indexed": true,
          "internalType": "address",
          "name": "from",
          "type": "address"
        },
        {
          "indexed": true,
          "internalType": "address",
          "name": "to",
          "type": "address"
        },
        {
          "indexed": true,
          "internalType": "uint256",
          "name": "tokenId",
          "type": "uint256"
        }
      ],
      "name": "Transfer",
      "type": "event"
    },
    {
      "inputs": [
        {
          "internalType": "address",
          "name": "to",
          "type": "address"
        },
        {
          "internalType": "uint256",
          "name": "tokenId",
          "type": "uint256"
        }
      ],
      "name": "approve",
      "outputs": [],
      "stateMutability": "nonpayable",
      "type": "function"
    },
    {
      "inputs": [
        {
          "internalType": "address",
          "name": "owner",
          "type": "address"
        }
      ],
      "name": "balanceOf",
      "outputs": [
        {
          "internalType": "uint256",
          "name": "",
          "type": "uint256"
        }
      ],
      "stateMutability": "view",
      "type": "function"
    },
    {
      "inputs": [
        {
          "internalType": "uint256",
          "name": "tokenId",
          "type": "uint256"
        }
      ],
      "name": "getApproved",
      "outputs": [
        {
          "internalType": "address",
          "name": "",
          "type": "address"
        }
      ],
      "stateMutability": "view",
      "type": "function"
    },
    {
      "inputs": [
        {
          "internalType": "uint256",
          "name": "_id",
          "type": "uint256"
        }
      ],
      "name": "getOccasion",
      "outputs": [
        {
          "components": [
            {
              "internalType": "uint256",
              "name": "id",
              "type": "uint256"
            },
            {
              "internalType": "string",
              "name": "name",
              "type": "string"
            },
            {
              "internalType": "uint256",
              "name": "cost",
              "type": "uint256"
            },
            {
              "internalType": "uint256",
              "name": "tickets",
              "type": "uint256"
            },
            {
              "internalType": "uint256",
              "name": "maxTickets",
              "type": "uint256"
            },
            {
              "internalType": "string",
              "name": "date",
              "type": "string"
            },
            {
              "internalType": "string",
              "name": "time",
              "type": "string"
            },
            {
              "internalType": "string",
              "name": "location",
              "type": "string"
            }
          ],
          "internalType": "struct TokenMaster.Occasion",
          "name": "",
          "type": "tuple"
        }
      ],
      "stateMutability": "view",
      "type": "function"
    },
    {
      "inputs": [
        {
          "internalType": "address",
          "name": "owner",
          "type": "address"
        },
        {
          "internalType": "address",
          "name": "operator",
          "type": "address"
        }
      ],
      "name": "isApprovedForAll",
      "outputs": [
        {
          "internalType": "bool",
          "name": "",
          "type": "bool"
        }
      ],
      "stateMutability": "view",
      "type": "function"
    },
    {
      "inputs": [
        {
          "internalType": "string",
          "name": "_name",
          "type": "string"
        },
        {
          "internalType": "uint256",
          "name": "_cost",
          "type": "uint256"
        },
        {
          "internalType": "uint256",
          "name": "_maxTickets",
          "type": "uint256"
        },
        {
          "internalType": "string",
          "name": "_date",
          "type": "string"
        },
        {
          "internalType": "string",
          "name": "_time",
          "type": "string"
        },
        {
          "internalType": "string",
          "name": "_location",
          "type": "string"
        }
      ],
      "name": "list",
      "outputs": [],
      "stateMutability": "nonpayable",
      "type": "function"
    },
    {
      "inputs": [],
      "name": "name",
      "outputs": [
        {
          "internalType": "string",
          "name": "",
          "type": "string"
        }
      ],
      "stateMutability": "view",
      "type": "function"
    },
    {
      "inputs": [],
      "name": "owner",
      "outputs": [
        {
          "internalType": "address",
          "name": "",
          "type": "address"
        }
      ],
      "stateMutability": "view",
      "type": "function"
    },
    {
      "inputs": [
        {
          "internalType": "uint256",
          "name": "tokenId",
          "type": "uint256"
        }
      ],
      "name": "ownerOf",
      "outputs": [
        {
          "internalType": "address",
          "name": "",
          "type": "address"
        }
      ],
      "stateMutability": "view",
      "type": "function"
    },
    {
      "inputs": [
        {
          "internalType": "address",
          "name": "from",
          "type": "address"
        },
        {
          "internalType": "address",
          "name": "to",
          "type": "address"
        },
        {
          "internalType": "uint256",
          "name": "tokenId",
          "type": "uint256"
        }
      ],
      "name": "safeTransferFrom",
      "outputs": [],
      "stateMutability": "nonpayable",
      "type": "function"
    },
    {
      "inputs": [
        {
          "internalType": "address",
          "name": "from",
          "type": "address"
        },
        {
          "internalType": "address",
          "name": "to",
          "type": "address"
        },
        {
          "internalType": "uint256",
          "name": "tokenId",
          "type": "uint256"
        },
        {
          "internalType": "bytes",
          "name": "data",
          "type": "bytes"
        }
      ],
      "name": "safeTransferFrom",
      "outputs": [],
      "stateMutability": "nonpayable",
      "type": "function"
    },
    {
      "inputs": [
        {
          "internalType": "address",
          "name": "operator",
          "type": "address"
        },
        {
          "internalType": "bool",
          "name": "approved",
          "type": "bool"
        }
      ],
      "name": "setApprovalForAll",
      "outputs": [],
      "stateMutability": "nonpayable",
      "type": "function"
    },
    {
      "inputs": [
        {
          "internalType": "bytes4",
          "name": "interfaceId",
          "type": "bytes4"
        }
      ],
      "name": "supportsInterface",
      "outputs": [
        {
          "internalType": "bool",
          "name": "",
          "type": "bool"
        }
      ],
      "stateMutability": "view",
      "type": "function"
    },
    {
      "inputs": [],
      "name": "symbol",
      "outputs": [
        {
          "internalType": "string",
          "name": "",
          "type": "string"
        }
      ],
      "stateMutability": "view",
      "type": "function"
    },
    {
      "inputs": [
        {
          "internalType": "uint256",
          "name": "tokenId",
          "type": "uint256"
        }
      ],
      "name": "tokenURI",
      "outputs": [
        {
          "internalType": "string",
          "name": "",
          "type": "string"
        }
      ],
      "stateMutability": "view",
      "type": "function"
    },
    {
      "inputs": [],
      "name": "totalOccasions",
      "outputs": [
        {
          "internalType": "uint256",
          "name": "",
          "type": "uint256"
        }
      ],
      "stateMutability": "view",
      "type": "function"
    },
    {
      "inputs": [],
      "name": "totalSupply",
      "outputs": [
        {
          "internalType": "uint256",
          "name": "",
          "type": "uint256"
        }
      ],
      "stateMutability": "view",
      "type": "function"
    },
    {
      "inputs": [
        {
          "internalType": "address",
          "name": "from",
          "type": "address"
        },
        {
          "internalType": "address",
          "name": "to",
          "type": "address"
        },
        {
          "internalType": "uint256",
          "name": "tokenId",
          "type": "uint256"
        }
      ],
      "name": "transferFrom",
      "outputs": [],
      "stateMutability": "nonpayable",
      "type": "function"
    }
  ],
  "bytecode": "0x60806040523480156200001157600080fd5b50604051620032453803806200324583398181016040528101906200003791906200023b565b818181600090816200004a91906200050b565b5080600190816200005c91906200050b565b50505033600660006101000a81548173ffffffffffffffffffffffffffffffffffffffff021916908373ffffffffffffffffffffffffffffffffffffffff1602179055505050620005f2565b6000604051905090565b600080fd5b600080fd5b600080fd5b600080fd5b6000601f19601f8301169050919050565b7f4e487b7100000000000000000000000000000000000000000000000000000000600052604160045260246000fd5b6200011182620000c6565b810181811067ffffffffffffffff82111715620001335762000132620000d7565b5b80604052505050565b600062000148620000a8565b905062000156828262000106565b919050565b600067ffffffffffffffff821115620001795762000178620000d7565b5b6200018482620000c6565b9050602081019050919050565b60005b83811015620001b157808201518184015260208101905062000194565b60008484015250505050565b6000620001d4620001ce846200015b565b6200013c565b905082815260208101848484011115620001f357620001f2620000c1565b5b6200020084828562000191565b509392505050565b600082601f83011262000220576200021f620000bc565b5b815162000232848260208601620001bd565b91505092915050565b60008060408385031215620002555762000254620000b2565b5b600083015167ffffffffffffffff811115620002765762000275620000b7565b5b620002848582860162000208565b925050602083015167ffffffffffffffff811115620002a857620002a7620000b7565b5b620002b68582860162000208565b9150509250929050565b600081519050919050565b7f4e487b7100000000000000000000000000000000000000000000000000000000600052602260045260246000fd5b600060028204905060018216806200031357607f821691505b602082108103620003295762000328620002cb565b5b50919050565b60008190508160005260206000209050919050565b60006020601f8301049050919050565b600082821b905092915050565b600060088302620003937fffffffffffffffffffffffffffffffffffffffffffffffffffffffffffffffff8262000354565b6200039f868362000354565b95508019841693508086168417925050509392505050565b6000819050919050565b6000819050919050565b6000620003ec620003e6620003e084620003b7565b620003c1565b620003b7565b9050919050565b6000819050919050565b6200040883620003cb565b620004206200041782620003f3565b84845462000361565b825550505050565b600090565b6200043762000428565b62000444818484620003fd565b505050565b5b818110156200046c57620004606000826200042d565b6001810190506200044a565b5050565b601f821115620004bb5762000485816200032f565b620004908462000344565b81016020851015620004a0578190505b620004b8620004af8562000344565b83018262000449565b50505b505050565b600082821c905092915050565b6000620004e060001984600802620004c0565b1980831691505092915050565b6000620004fb8383620004cd565b9150826002028217905092915050565b6200051682620002c0565b67ffffffffffffffff811115620005325762000531620000d7565b5b6200053e8254620002fa565b6200054b82828562000470565b600060209050601f8311600181146200058357600084156200056e578287015190505b6200057a8582620004ed565b865550620005ea565b601f19841662000593866200032f565b60005b82811015620005bd5784890151825560018201915060208501945060208101905062000596565b86831015620005dd5784890151620005d9601f891682620004cd565b8355505b6001600288020188555050505b505050505050565b612c4380620006026000396000f3fe608060405234801561001057600080fd5b50600436106101165760003560e01c806374bc8656116100a25780639a382f0f116100715780639a382f0f146102f5578063a22cb46514610311578063b88d4fde1461032d578063c87b56dd14610349578063e985e9c51461037957610116565b806374bc86561461026b5780638da5cb5b1461029b578063953865c1146102b957806395d89b41146102d757610116565b806318160ddd116100e957806318160ddd146101b557806323b872dd146101d357806342842e0e146101ef5780636352211e1461020b57806370a082311461023b57610116565b806301ffc9a71461011b57806306fdde031461014b578063081812fc14610169578063095ea7b314610199575b600080fd5b61013560048036038101906101309190611a44565b6103a9565b6040516101429190611a8c565b60405180910390f35b61015361048b565b6040516101609190611b37565b60405180910390f35b610183600480360381019061017e9190611b8f565b61051d565b6040516101909190611bfd565b60405180910390f35b6101b360048036038101906101ae9190611c44565b610563565b005b6101bd61067a565b6040516101ca9190611c93565b60405180910390f35b6101ed60048036038101906101e89190611cae565b610680565b005b61020960048036038101906102049190611cae565b6106e0565b005b61022560048036038101906102209190611b8f565b610700565b6040516102329190611bfd565b60405180910390f35b61025560048036038101906102509190611d01565b610786565b6040516102629190611c93565b60405180910390f35b61028560048036038101906102809190611b8f565b61083d565b6040516102929190611e4c565b60405180910390f35b6102a3610adb565b6040516102b09190611bfd565b60405180910390f35b6102c1610b01565b6040516102ce9190611c93565b60405180910390f35b6102df610b07565b6040516102ec9190611b37565b60405180910390f35b61030f600480360381019061030a9190611fa3565b610b99565b005b61032b600480360381019061032691906120cc565b610ce7565b005b610347600480360381019061034291906121ad565b610cfd565b005b610363600480360381019061035e9190611b8f565b610d5f565b6040516103709190611b37565b60405180910390f35b610393600480360381019061038e9190612230565b610dc7565b6040516103a09190611a8c565b60405180910390f35b60007f80ac58cd000000000000000000000000000000000000000000000000000000007bffffffffffffffffffffffffffffffffffffffffffffffffffffffff1916827bffffffffffffffffffffffffffffffffffffffffffffffffffffffff1916148061047457507f5b5e139f000000000000000000000000000000000000000000000000000000007bffffffffffffffffffffffffffffffffffffffffffffffffffffffff1916827bffffffffffffffffffffffffffffffffffffffffffffffffffffffff1916145b80610484575061048382610e5b565b5b9050919050565b60606000805461049a9061229f565b80601f01602080910402602001604051908101604052809291908181526020018280546104c69061229f565b80156105135780601f106104e857610100808354040283529160200191610513565b820191906000526020600020905b8154815290600101906020018083116104f657829003601f168201915b5050505050905090565b600061052882610ec5565b6004600083815260200190815260200160002060009054906101000a900473ffffffffffffffffffffffffffffffffffffffff169050919050565b600061056e82610700565b90508073ffffffffffffffffffffffffffffffffffffffff168373ffffffffffffffffffffffffffffffffffffffff16036105de576040517f08c379a00000000000000000000000000000000000000000000000000000000081526004016105d590612342565b60405180910390fd5b8073ffffffffffffffffffffffffffffffffffffffff166105fd610f10565b73ffffffffffffffffffffffffffffffffffffffff16148061062c575061062b81610626610f10565b610dc7565b5b61066b576040517f08c379a0000000000000000000000000000000000000000000000000000000008152600401610662906123d4565b60405180910390fd5b6106758383610f18565b505050565b60085481565b61069161068b610f10565b82610fd1565b6106d0576040517f08c379a00000000000000000000000000000000000000000000000000000000081526004016106c790612466565b60405180910390fd5b6106db838383611066565b505050565b6106fb83838360405180602001604052806000815250610cfd565b505050565b60008061070c8361135f565b9050600073ffffffffffffffffffffffffffffffffffffffff168173ffffffffffffffffffffffffffffffffffffffff160361077d576040517f08c379a0000000000000000000000000000000000000000000000000000000008152600401610774906124d2565b60405180910390fd5b80915050919050565b60008073ffffffffffffffffffffffffffffffffffffffff168273ffffffffffffffffffffffffffffffffffffffff16036107f6576040517f08c379a00000000000000000000000000000000000000000000000000000000081526004016107ed90612564565b60405180910390fd5b600360008373ffffffffffffffffffffffffffffffffffffffff1673ffffffffffffffffffffffffffffffffffffffff168152602001908152602001600020549050919050565b610845611993565b60096000838152602001908152602001600020604051806101000160405290816000820154815260200160018201805461087e9061229f565b80601f01602080910402602001604051908101604052809291908181526020018280546108aa9061229f565b80156108f75780601f106108cc576101008083540402835291602001916108f7565b820191906000526020600020905b8154815290600101906020018083116108da57829003601f168201915b5050505050815260200160028201548152602001600382015481526020016004820154815260200160058201805461092e9061229f565b80601f016020809104026020016040519081016040528092919081815260200182805461095a9061229f565b80156109a75780601f1061097c576101008083540402835291602001916109a7565b820191906000526020600020905b81548152906001019060200180831161098a57829003601f168201915b505050505081526020016006820180546109c09061229f565b80601f01602080910402602001604051908101604052809291908181526020018280546109ec9061229f565b8015610a395780601f10610a0e57610100808354040283529160200191610a39565b820191906000526020600020905b815481529060010190602001808311610a1c57829003601f168201915b50505050508152602001600782018054610a529061229f565b80601f0160208091040260200160405190810160405280929190818152602001828054610a7e9061229f565b8015610acb5780601f10610aa057610100808354040283529160200191610acb565b820191906000526020600020905b815481529060010190602001808311610aae57829003601f168201915b5050505050815250509050919050565b600660009054906101000a900473ffffffffffffffffffffffffffffffffffffffff1681565b60075481565b606060018054610b169061229f565b80601f0160208091040260200160405190810160405280929190818152602001828054610b429061229f565b8015610b8f5780601f10610b6457610100808354040283529160200191610b8f565b820191906000526020600020905b815481529060010190602001808311610b7257829003601f168201915b5050505050905090565b600660009054906101000a900473ffffffffffffffffffffffffffffffffffffffff1673ffffffffffffffffffffffffffffffffffffffff163373ffffffffffffffffffffffffffffffffffffffff1614610bf357600080fd5b60076000815480929190610c06906125b3565b9190505550604051806101000160405280600754815260200187815260200186815260200185815260200185815260200184815260200183815260200182815250600960006007548152602001908152602001600020600082015181600001556020820151816001019081610c7b91906127a7565b5060408201518160020155606082015181600301556080820151816004015560a0820151816005019081610caf91906127a7565b5060c0820151816006019081610cc591906127a7565b5060e0820151816007019081610cdb91906127a7565b50905050505050505050565b610cf9610cf2610f10565b838361139c565b5050565b610d0e610d08610f10565b83610fd1565b610d4d576040517f08c379a0000000000000000000000000000000000000000000000000000000008152600401610d4490612466565b60405180910390fd5b610d5984848484611508565b50505050565b6060610d6a82610ec5565b6000610d74611564565b90506000815111610d945760405180602001604052806000815250610dbf565b80610d9e8461157b565b604051602001610daf9291906128b5565b6040516020818303038152906040525b915050919050565b6000600560008473ffffffffffffffffffffffffffffffffffffffff1673ffffffffffffffffffffffffffffffffffffffff16815260200190815260200160002060008373ffffffffffffffffffffffffffffffffffffffff1673ffffffffffffffffffffffffffffffffffffffff16815260200190815260200160002060009054906101000a900460ff16905092915050565b60007f01ffc9a7000000000000000000000000000000000000000000000000000000007bffffffffffffffffffffffffffffffffffffffffffffffffffffffff1916827bffffffffffffffffffffffffffffffffffffffffffffffffffffffff1916149050919050565b610ece81611649565b610f0d576040517f08c379a0000000000000000000000000000000000000000000000000000000008152600401610f04906124d2565b60405180910390fd5b50565b600033905090565b816004600083815260200190815260200160002060006101000a81548173ffffffffffffffffffffffffffffffffffffffff021916908373ffffffffffffffffffffffffffffffffffffffff160217905550808273ffffffffffffffffffffffffffffffffffffffff16610f8b83610700565b73ffffffffffffffffffffffffffffffffffffffff167f8c5be1e5ebec7d5bd14f71427d1e84f3dd0314c0f7b2291e5b200ac8c7c3b92560405160405180910390a45050565b600080610fdd83610700565b90508073ffffffffffffffffffffffffffffffffffffffff168473ffffffffffffffffffffffffffffffffffffffff16148061101f575061101e8185610dc7565b5b8061105d57508373ffffffffffffffffffffffffffffffffffffffff166110458461051d565b73ffffffffffffffffffffffffffffffffffffffff16145b91505092915050565b8273ffffffffffffffffffffffffffffffffffffffff1661108682610700565b73ffffffffffffffffffffffffffffffffffffffff16146110dc576040517f08c379a00000000000000000000000000000000000000000000000000000000081526004016110d39061294b565b60405180910390fd5b600073ffffffffffffffffffffffffffffffffffffffff168273ffffffffffffffffffffffffffffffffffffffff160361114b576040517f08c379a0000000000000000000000000000000000000000000000000000000008152600401611142906129dd565b60405180910390fd5b611158838383600161168a565b8273ffffffffffffffffffffffffffffffffffffffff1661117882610700565b73ffffffffffffffffffffffffffffffffffffffff16146111ce576040517f08c379a00000000000000000000000000000000000000000000000000000000081526004016111c59061294b565b60405180910390fd5b6004600082815260200190815260200160002060006101000a81549073ffffffffffffffffffffffffffffffffffffffff02191690556001600360008573ffffffffffffffffffffffffffffffffffffffff1673ffffffffffffffffffffffffffffffffffffffff168152602001908152602001600020600082825403925050819055506001600360008473ffffffffffffffffffffffffffffffffffffffff1673ffffffffffffffffffffffffffffffffffffffff16815260200190815260200160002060008282540192505081905550816002600083815260200190815260200160002060006101000a81548173ffffffffffffffffffffffffffffffffffffffff021916908373ffffffffffffffffffffffffffffffffffffffff160217905550808273ffffffffffffffffffffffffffffffffffffffff168473ffffffffffffffffffffffffffffffffffffffff167fddf252ad1be2c89b69c2b068fc378daa952ba7f163c4a11628f55a4df523b3ef60405160405180910390a461135a8383836001611690565b505050565b60006002600083815260200190815260200160002060009054906101000a900473ffffffffffffffffffffffffffffffffffffffff169050919050565b8173ffffffffffffffffffffffffffffffffffffffff168373ffffffffffffffffffffffffffffffffffffffff160361140a576040517f08c379a000000000000000000000000000000000000000000000000000000000815260040161140190612a49565b60405180910390fd5b80600560008573ffffffffffffffffffffffffffffffffffffffff1673ffffffffffffffffffffffffffffffffffffffff16815260200190815260200160002060008473ffffffffffffffffffffffffffffffffffffffff1673ffffffffffffffffffffffffffffffffffffffff16815260200190815260200160002060006101000a81548160ff0219169083151502179055508173ffffffffffffffffffffffffffffffffffffffff168373ffffffffffffffffffffffffffffffffffffffff167f17307eab39ab6107e8899845ad3d59bd9653f200f220920489ca2b5937696c31836040516114fb9190611a8c565b60405180910390a3505050565b611513848484611066565b61151f84848484611696565b61155e576040517f08c379a000000000000000000000000000000000000000000000000000000000815260040161155590612adb565b60405180910390fd5b50505050565b606060405180602001604052806000815250905090565b60606000600161158a8461181d565b01905060008167ffffffffffffffff8111156115a9576115a8611e78565b5b6040519080825280601f01601f1916602001820160405280156115db5781602001600182028036833780820191505090505b509050600082602001820190505b60011561163e578080600190039150507f3031323334353637383961626364656600000000000000000000000000000000600a86061a8153600a858161163257611631612afb565b5b049450600085036115e9575b819350505050919050565b60008073ffffffffffffffffffffffffffffffffffffffff1661166b8361135f565b73ffffffffffffffffffffffffffffffffffffffff1614159050919050565b50505050565b50505050565b60006116b78473ffffffffffffffffffffffffffffffffffffffff16611970565b15611810578373ffffffffffffffffffffffffffffffffffffffff1663150b7a026116e0610f10565b8786866040518563ffffffff1660e01b81526004016117029493929190612b7f565b6020604051808303816000875af192505050801561173e57506040513d601f19601f8201168201806040525081019061173b9190612be0565b60015b6117c0573d806000811461176e576040519150601f19603f3d011682016040523d82523d6000602084013e611773565b606091505b5060008151036117b8576040517f08c379a00000000000000000000000000000000000000000000000000000000081526004016117af90612adb565b60405180910390fd5b805181602001fd5b63150b7a0260e01b7bffffffffffffffffffffffffffffffffffffffffffffffffffffffff1916817bffffffffffffffffffffffffffffffffffffffffffffffffffffffff191614915050611815565b600190505b949350505050565b600080600090507a184f03e93ff9f4daa797ed6e38ed64bf6a1f010000000000000000831061187b577a184f03e93ff9f4daa797ed6e38ed64bf6a1f010000000000000000838161187157611870612afb565b5b0492506040810190505b6d04ee2d6d415b85acef810000000083106118b8576d04ee2d6d415b85acef810000000083816118ae576118ad612afb565b5b0492506020810190505b662386f26fc1000083106118e757662386f26fc1000083816118dd576118dc612afb565b5b0492506010810190505b6305f5e1008310611910576305f5e100838161190657611905612afb565b5b0492506008810190505b612710831061193557612710838161192b5761192a612afb565b5b0492506004810190505b60648310611958576064838161194e5761194d612afb565b5b0492506002810190505b600a8310611967576001810190505b80915050919050565b6000808273ffffffffffffffffffffffffffffffffffffffff163b119050919050565b60405180610100016040528060008152602001606081526020016000815260200160008152602001600081526020016060815260200160608152602001606081525090565b6000604051905090565b600080fd5b600080fd5b60007fffffffff0000000000000000000000000000000000000000000000000000000082169050919050565b611a21816119ec565b8114611a2c57600080fd5b50565b600081359050611a3e81611a18565b92915050565b600060208284031215611a5a57611a596119e2565b5b6000611a6884828501611a2f565b91505092915050565b60008115159050919050565b611a8681611a71565b82525050565b6000602082019050611aa16000830184611a7d565b92915050565b600081519050919050565b600082825260208201905092915050565b60005b83811015611ae1578082015181840152602081019050611ac6565b60008484015250505050565b6000601f19601f8301169050919050565b6000611b0982611aa7565b611b138185611ab2565b9350611b23818560208601611ac3565b611b2c81611aed565b840191505092915050565b60006020820190508181036000830152611b518184611afe565b905092915050565b6000819050919050565b611b6c81611b59565b8114611b7757600080fd5b50565b600081359050611b8981611b63565b92915050565b600060208284031215611ba557611ba46119e2565b5b6000611bb384828501611b7a565b91505092915050565b600073ffffffffffffffffffffffffffffffffffffffff82169050919050565b6000611be782611bbc565b9050919050565b611bf781611bdc565b82525050565b6000602082019050611c126000830184611bee565b92915050565b611c2181611bdc565b8114611c2c57600080fd5b50565b600081359050611c3e81611c18565b92915050565b60008060408385031215611c5b57611c5a6119e2565b5b6000611c6985828601611c2f565b9250506020611c7a85828601611b7a565b9150509250929050565b611c8d81611b59565b82525050565b6000602082019050611ca86000830184611c84565b92915050565b600080600060608486031215611cc757611cc66119e2565b5b6000611cd586828701611c2f565b9350506020611ce686828701611c2f565b9250506040611cf786828701611b7a565b9150509250925092565b600060208284031215611d1757611d166119e2565b5b6000611d2584828501611c2f565b91505092915050565b611d3781611b59565b82525050565b600082825260208201905092915050565b6000611d5982611aa7565b611d638185611d3d565b9350611d73818560208601611ac3565b611d7c81611aed565b840191505092915050565b600061010083016000830151611da06000860182611d2e565b5060208301518482036020860152611db88282611d4e565b9150506040830151611dcd6040860182611d2e565b506060830151611de06060860182611d2e565b506080830151611df36080860182611d2e565b5060a083015184820360a0860152611e0b8282611d4e565b91505060c083015184820360c0860152611e258282611d4e565b91505060e083015184820360e0860152611e3f8282611d4e565b9150508091505092915050565b60006020820190508181036000830152611e668184611d87565b905092915050565b600080fd5b600080fd5b7f4e487b7100000000000000000000000000000000000000000000000000000000600052604160045260246000fd5b611eb082611aed565b810181811067ffffffffffffffff82111715611ecf57611ece611e78565b5b80604052505050565b6000611ee26119d8565b9050611eee8282611ea7565b919050565b600067ffffffffffffffff821115611f0e57611f0d611e78565b5b611f1782611aed565b9050602081019050919050565b82818337600083830152505050565b6000611f46611f4184611ef3565b611ed8565b905082815260208101848484011115611f6257611f61611e73565b5b611f6d848285611f24565b509392505050565b600082601f830112611f8a57611f89611e6e565b5b8135611f9a848260208601611f33565b91505092915050565b60008060008060008060c08789031215611fc057611fbf6119e2565b5b600087013567ffffffffffffffff811115611fde57611fdd6119e7565b5b611fea89828a01611f75565b9650506020611ffb89828a01611b7a565b955050604061200c89828a01611b7a565b945050606087013567ffffffffffffffff81111561202d5761202c6119e7565b5b61203989828a01611f75565b935050608087013567ffffffffffffffff81111561205a576120596119e7565b5b61206689828a01611f75565b92505060a087013567ffffffffffffffff811115612087576120866119e7565b5b61209389828a01611f75565b9150509295509295509295565b6120a981611a71565b81146120b457600080fd5b50565b6000813590506120c6816120a0565b92915050565b600080604083850312156120e3576120e26119e2565b5b60006120f185828601611c2f565b9250506020612102858286016120b7565b9150509250929050565b600067ffffffffffffffff82111561212757612126611e78565b5b61213082611aed565b9050602081019050919050565b600061215061214b8461210c565b611ed8565b90508281526020810184848401111561216c5761216b611e73565b5b612177848285611f24565b509392505050565b600082601f83011261219457612193611e6e565b5b81356121a484826020860161213d565b91505092915050565b600080600080608085870312156121c7576121c66119e2565b5b60006121d587828801611c2f565b94505060206121e687828801611c2f565b93505060406121f787828801611b7a565b925050606085013567ffffffffffffffff811115612218576122176119e7565b5b6122248782880161217f565b91505092959194509250565b60008060408385031215612247576122466119e2565b5b600061225585828601611c2f565b925050602061226685828601611c2f565b9150509250929050565b7f4e487b7100000000000000000000000000000000000000000000000000000000600052602260045260246000fd5b600060028204905060018216806122b757607f821691505b6020821081036122ca576122c9612270565b5b50919050565b7f4552433732313a20617070726f76616c20746f2063757272656e74206f776e6560008201527f7200000000000000000000000000000000000000000000000000000000000000602082015250565b600061232c602183611ab2565b9150612337826122d0565b604082019050919050565b6000602082019050818103600083015261235b8161231f565b9050919050565b7f4552433732313a20617070726f76652063616c6c6572206973206e6f7420746f60008201527f6b656e206f776e6572206f7220617070726f76656420666f7220616c6c000000602082015250565b60006123be603d83611ab2565b91506123c982612362565b604082019050919050565b600060208201905081810360008301526123ed816123b1565b9050919050565b7f4552433732313a2063616c6c6572206973206e6f7420746f6b656e206f776e6560008201527f72206f7220617070726f76656400000000000000000000000000000000000000602082015250565b6000612450602d83611ab2565b915061245b826123f4565b604082019050919050565b6000602082019050818103600083015261247f81612443565b9050919050565b7f4552433732313a20696e76616c696420746f6b656e2049440000000000000000600082015250565b60006124bc601883611ab2565b91506124c782612486565b602082019050919050565b600060208201905081810360008301526124eb816124af565b9050919050565b7f4552433732313a2061646472657373207a65726f206973206e6f74206120766160008201527f6c6964206f776e65720000000000000000000000000000000000000000000000602082015250565b600061254e602983611ab2565b9150612559826124f2565b604082019050919050565b6000602082019050818103600083015261257d81612541565b9050919050565b7f4e487b7100000000000000000000000000000000000000000000000000000000600052601160045260246000fd5b60006125be82611b59565b91507fffffffffffffffffffffffffffffffffffffffffffffffffffffffffffffffff82036125f0576125ef612584565b5b600182019050919050565b60008190508160005260206000209050919050565b60006020601f8301049050919050565b600082821b905092915050565b60006008830261265d7fffffffffffffffffffffffffffffffffffffffffffffffffffffffffffffffff82612620565b6126678683612620565b95508019841693508086168417925050509392505050565b6000819050919050565b60006126a461269f61269a84611b59565b61267f565b611b59565b9050919050565b6000819050919050565b6126be83612689565b6126d26126ca826126ab565b84845461262d565b825550505050565b600090565b6126e76126da565b6126f28184846126b5565b505050565b5b818110156127165761270b6000826126df565b6001810190506126f8565b5050565b601f82111561275b5761272c816125fb565b61273584612610565b81016020851015612744578190505b61275861275085612610565b8301826126f7565b50505b505050565b600082821c905092915050565b600061277e60001984600802612760565b1980831691505092915050565b6000612797838361276d565b9150826002028217905092915050565b6127b082611aa7565b67ffffffffffffffff8111156127c9576127c8611e78565b5b6127d3825461229f565b6127de82828561271a565b600060209050601f83116001811461281157600084156127ff578287015190505b612809858261278b565b865550612871565b601f19841661281f866125fb565b60005b8281101561284757848901518255600182019150602085019450602081019050612822565b868310156128645784890151612860601f89168261276d565b8355505b6001600288020188555050505b505050505050565b600081905092915050565b600061288f82611aa7565b6128998185612879565b93506128a9818560208601611ac3565b80840191505092915050565b60006128c18285612884565b91506128cd8284612884565b91508190509392505050565b7f4552433732313a207472616e736665722066726f6d20696e636f72726563742060008201527f6f776e6572000000000000000000000000000000000000000000000000000000602082015250565b6000612935602583611ab2565b9150612940826128d9565b604082019050919050565b6000602082019050818103600083015261296481612928565b9050919050565b7f4552433732313a207472616e7366657220746f20746865207a65726f2061646460008201527f7265737300000000000000000000000000000000000000000000000000000000602082015250565b60006129c7602483611ab2565b91506129d28261296b565b604082019050919050565b600060208201905081810360008301526129f6816129ba565b9050919050565b7f4552433732313a20617070726f766520746f2063616c6c657200000000000000600082015250565b6000612a33601983611ab2565b9150612a3e826129fd565b602082019050919050565b60006020820190508181036000830152612a6281612a26565b9050919050565b7f4552433732313a207472616e7366657220746f206e6f6e20455243373231526560008201527f63656976657220696d706c656d656e7465720000000000000000000000000000602082015250565b6000612ac5603283611ab2565b9150612ad082612a69565b604082019050919050565b60006020820190508181036000830152612af481612ab8565b9050919050565b7f4e487b7100000000000000000000000000000000000000000000000000000000600052601260045260246000fd5b600081519050919050565b600082825260208201905092915050565b6000612b5182612b2a565b612b5b8185612b35565b9350612b6b818560208601611ac3565b612b7481611aed565b840191505092915050565b6000608082019050612b946000830187611bee565b612ba16020830186611bee565b612bae6040830185611c84565b8181036060830152612bc08184612b46565b905095945050505050565b600081519050612bda81611a18565b92915050565b600060208284031215612bf657612bf56119e2565b5b6000612c0484828501612bcb565b9150509291505056fea2646970667358221220772a3961c4ae060c46932b200ba5627f095a7ff581aa420b2036261a92c36c4164736f6c63430008110033",
  "linkReferences": {},
  "deployedLinkReferences": {}
}