{
  "_format": "hh-sol-artifact-1",
  "contractName": "TokenMaster",
  "sourceName": "contracts/TokenMaster.sol",
  "abi": [
    {
      "inputs": [
        {
          "internalType": "string",
          "name": "_name",
          "type": "string"
        },
        {
          "internalType": "string",
          "name": "_symbol",
          "type": "string"
        }
      ],
      "stateMutability": "nonpayable",
      "type": "constructor"
    },
    {
      "anonymous": false,
      "inputs": [
        {
          "indexed": true,
          "internalType": "address",
          "name": "owner",
          "type": "address"
        },
        {
          "indexed": true,
          "internalType": "address",
          "name": "approved",
          "type": "address"
        },
        {
          "indexed": true,
          "internalType": "uint256",
          "name": "tokenId",
          "type": "uint256"
        }
      ],
      "name": "Approval",
      "type": "event"
    },
    {
      "anonymous": false,
      "inputs": [
        {
          "indexed": true,
          "internalType": "address",
          "name": "owner",
          "type": "address"
        },
        {
          "indexed": true,
          "internalType": "address",
          "name": "operator",
          "type": "address"
        },
        {
          "indexed": false,
          "internalType": "bool",
          "name": "approved",
          "type": "bool"
        }
      ],
      "name": "ApprovalForAll",
      "type": "event"
    },
    {
      "anonymous": false,
      "inputs": [
        {
          "indexed": true,
          "internalType": "address",
          "name": "from",
          "type": "address"
        },
        {
          "indexed": true,
          "internalType": "address",
          "name": "to",
          "type": "address"
        },
        {
          "indexed": true,
          "internalType": "uint256",
          "name": "tokenId",
          "type": "uint256"
        }
      ],
      "name": "Transfer",
      "type": "event"
    },
    {
      "inputs": [
        {
          "internalType": "address",
          "name": "to",
          "type": "address"
        },
        {
          "internalType": "uint256",
          "name": "tokenId",
          "type": "uint256"
        }
      ],
      "name": "approve",
      "outputs": [],
      "stateMutability": "nonpayable",
      "type": "function"
    },
    {
      "inputs": [
        {
          "internalType": "address",
          "name": "owner",
          "type": "address"
        }
      ],
      "name": "balanceOf",
      "outputs": [
        {
          "internalType": "uint256",
          "name": "",
          "type": "uint256"
        }
      ],
      "stateMutability": "view",
      "type": "function"
    },
    {
      "inputs": [
        {
          "internalType": "uint256",
          "name": "tokenId",
          "type": "uint256"
        }
      ],
      "name": "getApproved",
      "outputs": [
        {
          "internalType": "address",
          "name": "",
          "type": "address"
        }
      ],
      "stateMutability": "view",
      "type": "function"
    },
    {
      "inputs": [
        {
          "internalType": "uint256",
          "name": "_id",
          "type": "uint256"
        }
      ],
      "name": "getOccasion",
      "outputs": [
        {
          "components": [
            {
              "internalType": "uint256",
              "name": "id",
              "type": "uint256"
            },
            {
              "internalType": "string",
              "name": "name",
              "type": "string"
            },
            {
              "internalType": "uint256",
              "name": "cost",
              "type": "uint256"
            },
            {
              "internalType": "uint256",
              "name": "tickets",
              "type": "uint256"
            },
            {
              "internalType": "uint256",
              "name": "maxTickets",
              "type": "uint256"
            },
            {
              "internalType": "string",
              "name": "date",
              "type": "string"
            },
            {
              "internalType": "string",
              "name": "time",
              "type": "string"
            },
            {
              "internalType": "string",
              "name": "location",
              "type": "string"
            }
          ],
          "internalType": "struct TokenMaster.Occasion",
          "name": "",
          "type": "tuple"
        }
      ],
      "stateMutability": "view",
      "type": "function"
    },
    {
      "inputs": [
        {
          "internalType": "uint256",
          "name": "_id",
          "type": "uint256"
        }
      ],
      "name": "getSeatsTaken",
      "outputs": [
        {
          "internalType": "uint256[]",
          "name": "",
          "type": "uint256[]"
        }
      ],
      "stateMutability": "view",
      "type": "function"
    },
    {
      "inputs": [
        {
          "internalType": "uint256",
          "name": "",
          "type": "uint256"
        },
        {
          "internalType": "address",
          "name": "",
          "type": "address"
        }
      ],
      "name": "hasBought",
      "outputs": [
        {
          "internalType": "bool",
          "name": "",
          "type": "bool"
        }
      ],
      "stateMutability": "view",
      "type": "function"
    },
    {
      "inputs": [
        {
          "internalType": "address",
          "name": "owner",
          "type": "address"
        },
        {
          "internalType": "address",
          "name": "operator",
          "type": "address"
        }
      ],
      "name": "isApprovedForAll",
      "outputs": [
        {
          "internalType": "bool",
          "name": "",
          "type": "bool"
        }
      ],
      "stateMutability": "view",
      "type": "function"
    },
    {
      "inputs": [
        {
          "internalType": "string",
          "name": "_name",
          "type": "string"
        },
        {
          "internalType": "uint256",
          "name": "_cost",
          "type": "uint256"
        },
        {
          "internalType": "uint256",
          "name": "_maxTickets",
          "type": "uint256"
        },
        {
          "internalType": "string",
          "name": "_date",
          "type": "string"
        },
        {
          "internalType": "string",
          "name": "_time",
          "type": "string"
        },
        {
          "internalType": "string",
          "name": "_location",
          "type": "string"
        }
      ],
      "name": "list",
      "outputs": [],
      "stateMutability": "nonpayable",
      "type": "function"
    },
    {
      "inputs": [
        {
          "internalType": "uint256",
          "name": "_id",
          "type": "uint256"
        },
        {
          "internalType": "uint256",
          "name": "_seat",
          "type": "uint256"
        }
      ],
      "name": "mint",
      "outputs": [],
      "stateMutability": "payable",
      "type": "function"
    },
    {
      "inputs": [],
      "name": "name",
      "outputs": [
        {
          "internalType": "string",
          "name": "",
          "type": "string"
        }
      ],
      "stateMutability": "view",
      "type": "function"
    },
    {
      "inputs": [],
      "name": "owner",
      "outputs": [
        {
          "internalType": "address",
          "name": "",
          "type": "address"
        }
      ],
      "stateMutability": "view",
      "type": "function"
    },
    {
      "inputs": [
        {
          "internalType": "uint256",
          "name": "tokenId",
          "type": "uint256"
        }
      ],
      "name": "ownerOf",
      "outputs": [
        {
          "internalType": "address",
          "name": "",
          "type": "address"
        }
      ],
      "stateMutability": "view",
      "type": "function"
    },
    {
      "inputs": [
        {
          "internalType": "address",
          "name": "from",
          "type": "address"
        },
        {
          "internalType": "address",
          "name": "to",
          "type": "address"
        },
        {
          "internalType": "uint256",
          "name": "tokenId",
          "type": "uint256"
        }
      ],
      "name": "safeTransferFrom",
      "outputs": [],
      "stateMutability": "nonpayable",
      "type": "function"
    },
    {
      "inputs": [
        {
          "internalType": "address",
          "name": "from",
          "type": "address"
        },
        {
          "internalType": "address",
          "name": "to",
          "type": "address"
        },
        {
          "internalType": "uint256",
          "name": "tokenId",
          "type": "uint256"
        },
        {
          "internalType": "bytes",
          "name": "data",
          "type": "bytes"
        }
      ],
      "name": "safeTransferFrom",
      "outputs": [],
      "stateMutability": "nonpayable",
      "type": "function"
    },
    {
      "inputs": [
        {
          "internalType": "uint256",
          "name": "",
          "type": "uint256"
        },
        {
          "internalType": "uint256",
          "name": "",
          "type": "uint256"
        }
      ],
      "name": "seatTaken",
      "outputs": [
        {
          "internalType": "address",
          "name": "",
          "type": "address"
        }
      ],
      "stateMutability": "view",
      "type": "function"
    },
    {
      "inputs": [
        {
          "internalType": "address",
          "name": "operator",
          "type": "address"
        },
        {
          "internalType": "bool",
          "name": "approved",
          "type": "bool"
        }
      ],
      "name": "setApprovalForAll",
      "outputs": [],
      "stateMutability": "nonpayable",
      "type": "function"
    },
    {
      "inputs": [
        {
          "internalType": "bytes4",
          "name": "interfaceId",
          "type": "bytes4"
        }
      ],
      "name": "supportsInterface",
      "outputs": [
        {
          "internalType": "bool",
          "name": "",
          "type": "bool"
        }
      ],
      "stateMutability": "view",
      "type": "function"
    },
    {
      "inputs": [],
      "name": "symbol",
      "outputs": [
        {
          "internalType": "string",
          "name": "",
          "type": "string"
        }
      ],
      "stateMutability": "view",
      "type": "function"
    },
    {
      "inputs": [
        {
          "internalType": "uint256",
          "name": "tokenId",
          "type": "uint256"
        }
      ],
      "name": "tokenURI",
      "outputs": [
        {
          "internalType": "string",
          "name": "",
          "type": "string"
        }
      ],
      "stateMutability": "view",
      "type": "function"
    },
    {
      "inputs": [],
      "name": "totalOccasions",
      "outputs": [
        {
          "internalType": "uint256",
          "name": "",
          "type": "uint256"
        }
      ],
      "stateMutability": "view",
      "type": "function"
    },
    {
      "inputs": [],
      "name": "totalSupply",
      "outputs": [
        {
          "internalType": "uint256",
          "name": "",
          "type": "uint256"
        }
      ],
      "stateMutability": "view",
      "type": "function"
    },
    {
      "inputs": [
        {
          "internalType": "address",
          "name": "from",
          "type": "address"
        },
        {
          "internalType": "address",
          "name": "to",
          "type": "address"
        },
        {
          "internalType": "uint256",
          "name": "tokenId",
          "type": "uint256"
        }
      ],
      "name": "transferFrom",
      "outputs": [],
      "stateMutability": "nonpayable",
      "type": "function"
    },
    {
      "inputs": [],
      "name": "withdraw",
      "outputs": [],
      "stateMutability": "nonpayable",
      "type": "function"
    }
  ],
  "bytecode": "0x60806040523480156200001157600080fd5b5060405162003ca938038062003ca983398181016040528101906200003791906200023b565b818181600090816200004a91906200050b565b5080600190816200005c91906200050b565b50505033600660006101000a81548173ffffffffffffffffffffffffffffffffffffffff021916908373ffffffffffffffffffffffffffffffffffffffff1602179055505050620005f2565b6000604051905090565b600080fd5b600080fd5b600080fd5b600080fd5b6000601f19601f8301169050919050565b7f4e487b7100000000000000000000000000000000000000000000000000000000600052604160045260246000fd5b6200011182620000c6565b810181811067ffffffffffffffff82111715620001335762000132620000d7565b5b80604052505050565b600062000148620000a8565b905062000156828262000106565b919050565b600067ffffffffffffffff821115620001795762000178620000d7565b5b6200018482620000c6565b9050602081019050919050565b60005b83811015620001b157808201518184015260208101905062000194565b60008484015250505050565b6000620001d4620001ce846200015b565b6200013c565b905082815260208101848484011115620001f357620001f2620000c1565b5b6200020084828562000191565b509392505050565b600082601f83011262000220576200021f620000bc565b5b815162000232848260208601620001bd565b91505092915050565b60008060408385031215620002555762000254620000b2565b5b600083015167ffffffffffffffff811115620002765762000275620000b7565b5b620002848582860162000208565b925050602083015167ffffffffffffffff811115620002a857620002a7620000b7565b5b620002b68582860162000208565b9150509250929050565b600081519050919050565b7f4e487b7100000000000000000000000000000000000000000000000000000000600052602260045260246000fd5b600060028204905060018216806200031357607f821691505b602082108103620003295762000328620002cb565b5b50919050565b60008190508160005260206000209050919050565b60006020601f8301049050919050565b600082821b905092915050565b600060088302620003937fffffffffffffffffffffffffffffffffffffffffffffffffffffffffffffffff8262000354565b6200039f868362000354565b95508019841693508086168417925050509392505050565b6000819050919050565b6000819050919050565b6000620003ec620003e6620003e084620003b7565b620003c1565b620003b7565b9050919050565b6000819050919050565b6200040883620003cb565b620004206200041782620003f3565b84845462000361565b825550505050565b600090565b6200043762000428565b62000444818484620003fd565b505050565b5b818110156200046c57620004606000826200042d565b6001810190506200044a565b5050565b601f821115620004bb5762000485816200032f565b620004908462000344565b81016020851015620004a0578190505b620004b8620004af8562000344565b83018262000449565b50505b505050565b600082821c905092915050565b6000620004e060001984600802620004c0565b1980831691505092915050565b6000620004fb8383620004cd565b9150826002028217905092915050565b6200051682620002c0565b67ffffffffffffffff811115620005325762000531620000d7565b5b6200053e8254620002fa565b6200054b82828562000470565b600060209050601f8311600181146200058357600084156200056e578287015190505b6200057a8582620004ed565b865550620005ea565b601f19841662000593866200032f565b60005b82811015620005bd5784890151825560018201915060208501945060208101905062000596565b86831015620005dd5784890151620005d9601f891682620004cd565b8355505b6001600288020188555050505b505050505050565b6136a780620006026000396000f3fe6080604052600436106101405760003560e01c806370a08231116100b65780639cb04aef1161006f5780639cb04aef14610461578063a22cb4651461049e578063af296da1146104c7578063b88d4fde14610504578063c87b56dd1461052d578063e985e9c51461056a57610140565b806370a082311461033d57806374bc86561461037a5780638da5cb5b146103b7578063953865c1146103e257806395d89b411461040d5780639a382f0f1461043857610140565b806318160ddd1161010857806318160ddd146102505780631b2ef1ca1461027b57806323b872dd146102975780633ccfd60b146102c057806342842e0e146102d75780636352211e1461030057610140565b806301ffc9a71461014557806306fdde0314610182578063081812fc146101ad578063095ea7b3146101ea5780630ef7ec7414610213575b600080fd5b34801561015157600080fd5b5061016c60048036038101906101679190612205565b6105a7565b604051610179919061224d565b60405180910390f35b34801561018e57600080fd5b50610197610689565b6040516101a491906122f8565b60405180910390f35b3480156101b957600080fd5b506101d460048036038101906101cf9190612350565b61071b565b6040516101e191906123be565b60405180910390f35b3480156101f657600080fd5b50610211600480360381019061020c9190612405565b610761565b005b34801561021f57600080fd5b5061023a60048036038101906102359190612350565b610878565b6040516102479190612503565b60405180910390f35b34801561025c57600080fd5b506102656108e3565b6040516102729190612534565b60405180910390f35b6102956004803603810190610290919061254f565b6108e9565b005b3480156102a357600080fd5b506102be60048036038101906102b9919061258f565b610a45565b005b3480156102cc57600080fd5b506102d5610aa5565b005b3480156102e357600080fd5b506102fe60048036038101906102f9919061258f565b610b9a565b005b34801561030c57600080fd5b5061032760048036038101906103229190612350565b610bba565b60405161033491906123be565b60405180910390f35b34801561034957600080fd5b50610364600480360381019061035f91906125e2565b610c40565b6040516103719190612534565b60405180910390f35b34801561038657600080fd5b506103a1600480360381019061039c9190612350565b610cf7565b6040516103ae919061271e565b60405180910390f35b3480156103c357600080fd5b506103cc610f95565b6040516103d991906123be565b60405180910390f35b3480156103ee57600080fd5b506103f7610fbb565b6040516104049190612534565b60405180910390f35b34801561041957600080fd5b50610422610fc1565b60405161042f91906122f8565b60405180910390f35b34801561044457600080fd5b5061045f600480360381019061045a9190612875565b611053565b005b34801561046d57600080fd5b5061048860048036038101906104839190612972565b6111a1565b604051610495919061224d565b60405180910390f35b3480156104aa57600080fd5b506104c560048036038101906104c091906129de565b6111d0565b005b3480156104d357600080fd5b506104ee60048036038101906104e9919061254f565b6111e6565b6040516104fb91906123be565b60405180910390f35b34801561051057600080fd5b5061052b60048036038101906105269190612abf565b611228565b005b34801561053957600080fd5b50610554600480360381019061054f9190612350565b61128a565b60405161056191906122f8565b60405180910390f35b34801561057657600080fd5b50610591600480360381019061058c9190612b42565b6112f2565b60405161059e919061224d565b60405180910390f35b60007f80ac58cd000000000000000000000000000000000000000000000000000000007bffffffffffffffffffffffffffffffffffffffffffffffffffffffff1916827bffffffffffffffffffffffffffffffffffffffffffffffffffffffff1916148061067257507f5b5e139f000000000000000000000000000000000000000000000000000000007bffffffffffffffffffffffffffffffffffffffffffffffffffffffff1916827bffffffffffffffffffffffffffffffffffffffffffffffffffffffff1916145b80610682575061068182611386565b5b9050919050565b60606000805461069890612bb1565b80601f01602080910402602001604051908101604052809291908181526020018280546106c490612bb1565b80156107115780601f106106e657610100808354040283529160200191610711565b820191906000526020600020905b8154815290600101906020018083116106f457829003601f168201915b5050505050905090565b6000610726826113f0565b6004600083815260200190815260200160002060009054906101000a900473ffffffffffffffffffffffffffffffffffffffff169050919050565b600061076c82610bba565b90508073ffffffffffffffffffffffffffffffffffffffff168373ffffffffffffffffffffffffffffffffffffffff16036107dc576040517f08c379a00000000000000000000000000000000000000000000000000000000081526004016107d390612c54565b60405180910390fd5b8073ffffffffffffffffffffffffffffffffffffffff166107fb61143b565b73ffffffffffffffffffffffffffffffffffffffff16148061082a57506108298161082461143b565b6112f2565b5b610869576040517f08c379a000000000000000000000000000000000000000000000000000000000815260040161086090612ce6565b60405180910390fd5b6108738383611443565b505050565b6060600c60008381526020019081526020016000208054806020026020016040519081016040528092919081815260200182805480156108d757602002820191906000526020600020905b8154815260200190600101908083116108c3575b50505050509050919050565b60085481565b60016009600084815260200190815260200160002060030160008282546109109190612d35565b925050819055506001600a600084815260200190815260200160002060003373ffffffffffffffffffffffffffffffffffffffff1673ffffffffffffffffffffffffffffffffffffffff16815260200190815260200160002060006101000a81548160ff02191690831515021790555033600b6000848152602001908152602001600020600083815260200190815260200160002060006101000a81548173ffffffffffffffffffffffffffffffffffffffff021916908373ffffffffffffffffffffffffffffffffffffffff160217905550600c600083815260200190815260200160002081908060018154018082558091505060019003906000526020600020016000909190919091505560086000815480929190610a3090612d69565b9190505550610a41336008546114fc565b5050565b610a56610a5061143b565b8261151a565b610a95576040517f08c379a0000000000000000000000000000000000000000000000000000000008152600401610a8c90612e23565b60405180910390fd5b610aa08383836115af565b505050565b600660009054906101000a900473ffffffffffffffffffffffffffffffffffffffff1673ffffffffffffffffffffffffffffffffffffffff163373ffffffffffffffffffffffffffffffffffffffff1614610aff57600080fd5b6000600660009054906101000a900473ffffffffffffffffffffffffffffffffffffffff1673ffffffffffffffffffffffffffffffffffffffff1647604051610b4790612e74565b60006040518083038185875af1925050503d8060008114610b84576040519150601f19603f3d011682016040523d82523d6000602084013e610b89565b606091505b5050905080610b9757600080fd5b50565b610bb583838360405180602001604052806000815250611228565b505050565b600080610bc6836118a8565b9050600073ffffffffffffffffffffffffffffffffffffffff168173ffffffffffffffffffffffffffffffffffffffff1603610c37576040517f08c379a0000000000000000000000000000000000000000000000000000000008152600401610c2e90612ed5565b60405180910390fd5b80915050919050565b60008073ffffffffffffffffffffffffffffffffffffffff168273ffffffffffffffffffffffffffffffffffffffff1603610cb0576040517f08c379a0000000000000000000000000000000000000000000000000000000008152600401610ca790612f67565b60405180910390fd5b600360008373ffffffffffffffffffffffffffffffffffffffff1673ffffffffffffffffffffffffffffffffffffffff168152602001908152602001600020549050919050565b610cff612154565b600960008381526020019081526020016000206040518061010001604052908160008201548152602001600182018054610d3890612bb1565b80601f0160208091040260200160405190810160405280929190818152602001828054610d6490612bb1565b8015610db15780601f10610d8657610100808354040283529160200191610db1565b820191906000526020600020905b815481529060010190602001808311610d9457829003601f168201915b50505050508152602001600282015481526020016003820154815260200160048201548152602001600582018054610de890612bb1565b80601f0160208091040260200160405190810160405280929190818152602001828054610e1490612bb1565b8015610e615780601f10610e3657610100808354040283529160200191610e61565b820191906000526020600020905b815481529060010190602001808311610e4457829003601f168201915b50505050508152602001600682018054610e7a90612bb1565b80601f0160208091040260200160405190810160405280929190818152602001828054610ea690612bb1565b8015610ef35780601f10610ec857610100808354040283529160200191610ef3565b820191906000526020600020905b815481529060010190602001808311610ed657829003601f168201915b50505050508152602001600782018054610f0c90612bb1565b80601f0160208091040260200160405190810160405280929190818152602001828054610f3890612bb1565b8015610f855780601f10610f5a57610100808354040283529160200191610f85565b820191906000526020600020905b815481529060010190602001808311610f6857829003601f168201915b5050505050815250509050919050565b600660009054906101000a900473ffffffffffffffffffffffffffffffffffffffff1681565b60075481565b606060018054610fd090612bb1565b80601f0160208091040260200160405190810160405280929190818152602001828054610ffc90612bb1565b80156110495780601f1061101e57610100808354040283529160200191611049565b820191906000526020600020905b81548152906001019060200180831161102c57829003601f168201915b5050505050905090565b600660009054906101000a900473ffffffffffffffffffffffffffffffffffffffff1673ffffffffffffffffffffffffffffffffffffffff163373ffffffffffffffffffffffffffffffffffffffff16146110ad57600080fd5b600760008154809291906110c090612d69565b91905055506040518061010001604052806007548152602001878152602001868152602001858152602001858152602001848152602001838152602001828152506009600060075481526020019081526020016000206000820151816000015560208201518160010190816111359190613133565b5060408201518160020155606082015181600301556080820151816004015560a08201518160050190816111699190613133565b5060c082015181600601908161117f9190613133565b5060e08201518160070190816111959190613133565b50905050505050505050565b600a6020528160005260406000206020528060005260406000206000915091509054906101000a900460ff1681565b6111e26111db61143b565b83836118e5565b5050565b600b6020528160005260406000206020528060005260406000206000915091509054906101000a900473ffffffffffffffffffffffffffffffffffffffff1681565b61123961123361143b565b8361151a565b611278576040517f08c379a000000000000000000000000000000000000000000000000000000000815260040161126f90612e23565b60405180910390fd5b61128484848484611a51565b50505050565b6060611295826113f0565b600061129f611aad565b905060008151116112bf57604051806020016040528060008152506112ea565b806112c984611ac4565b6040516020016112da929190613241565b6040516020818303038152906040525b915050919050565b6000600560008473ffffffffffffffffffffffffffffffffffffffff1673ffffffffffffffffffffffffffffffffffffffff16815260200190815260200160002060008373ffffffffffffffffffffffffffffffffffffffff1673ffffffffffffffffffffffffffffffffffffffff16815260200190815260200160002060009054906101000a900460ff16905092915050565b60007f01ffc9a7000000000000000000000000000000000000000000000000000000007bffffffffffffffffffffffffffffffffffffffffffffffffffffffff1916827bffffffffffffffffffffffffffffffffffffffffffffffffffffffff1916149050919050565b6113f981611b92565b611438576040517f08c379a000000000000000000000000000000000000000000000000000000000815260040161142f90612ed5565b60405180910390fd5b50565b600033905090565b816004600083815260200190815260200160002060006101000a81548173ffffffffffffffffffffffffffffffffffffffff021916908373ffffffffffffffffffffffffffffffffffffffff160217905550808273ffffffffffffffffffffffffffffffffffffffff166114b683610bba565b73ffffffffffffffffffffffffffffffffffffffff167f8c5be1e5ebec7d5bd14f71427d1e84f3dd0314c0f7b2291e5b200ac8c7c3b92560405160405180910390a45050565b611516828260405180602001604052806000815250611bd3565b5050565b60008061152683610bba565b90508073ffffffffffffffffffffffffffffffffffffffff168473ffffffffffffffffffffffffffffffffffffffff161480611568575061156781856112f2565b5b806115a657508373ffffffffffffffffffffffffffffffffffffffff1661158e8461071b565b73ffffffffffffffffffffffffffffffffffffffff16145b91505092915050565b8273ffffffffffffffffffffffffffffffffffffffff166115cf82610bba565b73ffffffffffffffffffffffffffffffffffffffff1614611625576040517f08c379a000000000000000000000000000000000000000000000000000000000815260040161161c906132d7565b60405180910390fd5b600073ffffffffffffffffffffffffffffffffffffffff168273ffffffffffffffffffffffffffffffffffffffff1603611694576040517f08c379a000000000000000000000000000000000000000000000000000000000815260040161168b90613369565b60405180910390fd5b6116a18383836001611c2e565b8273ffffffffffffffffffffffffffffffffffffffff166116c182610bba565b73ffffffffffffffffffffffffffffffffffffffff1614611717576040517f08c379a000000000000000000000000000000000000000000000000000000000815260040161170e906132d7565b60405180910390fd5b6004600082815260200190815260200160002060006101000a81549073ffffffffffffffffffffffffffffffffffffffff02191690556001600360008573ffffffffffffffffffffffffffffffffffffffff1673ffffffffffffffffffffffffffffffffffffffff168152602001908152602001600020600082825403925050819055506001600360008473ffffffffffffffffffffffffffffffffffffffff1673ffffffffffffffffffffffffffffffffffffffff16815260200190815260200160002060008282540192505081905550816002600083815260200190815260200160002060006101000a81548173ffffffffffffffffffffffffffffffffffffffff021916908373ffffffffffffffffffffffffffffffffffffffff160217905550808273ffffffffffffffffffffffffffffffffffffffff168473ffffffffffffffffffffffffffffffffffffffff167fddf252ad1be2c89b69c2b068fc378daa952ba7f163c4a11628f55a4df523b3ef60405160405180910390a46118a38383836001611c34565b505050565b60006002600083815260200190815260200160002060009054906101000a900473ffffffffffffffffffffffffffffffffffffffff169050919050565b8173ffffffffffffffffffffffffffffffffffffffff168373ffffffffffffffffffffffffffffffffffffffff1603611953576040517f08c379a000000000000000000000000000000000000000000000000000000000815260040161194a906133d5565b60405180910390fd5b80600560008573ffffffffffffffffffffffffffffffffffffffff1673ffffffffffffffffffffffffffffffffffffffff16815260200190815260200160002060008473ffffffffffffffffffffffffffffffffffffffff1673ffffffffffffffffffffffffffffffffffffffff16815260200190815260200160002060006101000a81548160ff0219169083151502179055508173ffffffffffffffffffffffffffffffffffffffff168373ffffffffffffffffffffffffffffffffffffffff167f17307eab39ab6107e8899845ad3d59bd9653f200f220920489ca2b5937696c3183604051611a44919061224d565b60405180910390a3505050565b611a5c8484846115af565b611a6884848484611c3a565b611aa7576040517f08c379a0000000000000000000000000000000000000000000000000000000008152600401611a9e90613467565b60405180910390fd5b50505050565b606060405180602001604052806000815250905090565b606060006001611ad384611dc1565b01905060008167ffffffffffffffff811115611af257611af161274a565b5b6040519080825280601f01601f191660200182016040528015611b245781602001600182028036833780820191505090505b509050600082602001820190505b600115611b87578080600190039150507f3031323334353637383961626364656600000000000000000000000000000000600a86061a8153600a8581611b7b57611b7a613487565b5b04945060008503611b32575b819350505050919050565b60008073ffffffffffffffffffffffffffffffffffffffff16611bb4836118a8565b73ffffffffffffffffffffffffffffffffffffffff1614159050919050565b611bdd8383611f14565b611bea6000848484611c3a565b611c29576040517f08c379a0000000000000000000000000000000000000000000000000000000008152600401611c2090613467565b60405180910390fd5b505050565b50505050565b50505050565b6000611c5b8473ffffffffffffffffffffffffffffffffffffffff16612131565b15611db4578373ffffffffffffffffffffffffffffffffffffffff1663150b7a02611c8461143b565b8786866040518563ffffffff1660e01b8152600401611ca6949392919061350b565b6020604051808303816000875af1925050508015611ce257506040513d601f19601f82011682018060405250810190611cdf919061356c565b60015b611d64573d8060008114611d12576040519150601f19603f3d011682016040523d82523d6000602084013e611d17565b606091505b506000815103611d5c576040517f08c379a0000000000000000000000000000000000000000000000000000000008152600401611d5390613467565b60405180910390fd5b805181602001fd5b63150b7a0260e01b7bffffffffffffffffffffffffffffffffffffffffffffffffffffffff1916817bffffffffffffffffffffffffffffffffffffffffffffffffffffffff191614915050611db9565b600190505b949350505050565b600080600090507a184f03e93ff9f4daa797ed6e38ed64bf6a1f0100000000000000008310611e1f577a184f03e93ff9f4daa797ed6e38ed64bf6a1f0100000000000000008381611e1557611e14613487565b5b0492506040810190505b6d04ee2d6d415b85acef81000000008310611e5c576d04ee2d6d415b85acef81000000008381611e5257611e51613487565b5b0492506020810190505b662386f26fc100008310611e8b57662386f26fc100008381611e8157611e80613487565b5b0492506010810190505b6305f5e1008310611eb4576305f5e1008381611eaa57611ea9613487565b5b0492506008810190505b6127108310611ed9576127108381611ecf57611ece613487565b5b0492506004810190505b60648310611efc5760648381611ef257611ef1613487565b5b0492506002810190505b600a8310611f0b576001810190505b80915050919050565b600073ffffffffffffffffffffffffffffffffffffffff168273ffffffffffffffffffffffffffffffffffffffff1603611f83576040517f08c379a0000000000000000000000000000000000000000000000000000000008152600401611f7a906135e5565b60405180910390fd5b611f8c81611b92565b15611fcc576040517f08c379a0000000000000000000000000000000000000000000000000000000008152600401611fc390613651565b60405180910390fd5b611fda600083836001611c2e565b611fe381611b92565b15612023576040517f08c379a000000000000000000000000000000000000000000000000000000000815260040161201a90613651565b60405180910390fd5b6001600360008473ffffffffffffffffffffffffffffffffffffffff1673ffffffffffffffffffffffffffffffffffffffff16815260200190815260200160002060008282540192505081905550816002600083815260200190815260200160002060006101000a81548173ffffffffffffffffffffffffffffffffffffffff021916908373ffffffffffffffffffffffffffffffffffffffff160217905550808273ffffffffffffffffffffffffffffffffffffffff16600073ffffffffffffffffffffffffffffffffffffffff167fddf252ad1be2c89b69c2b068fc378daa952ba7f163c4a11628f55a4df523b3ef60405160405180910390a461212d600083836001611c34565b5050565b6000808273ffffffffffffffffffffffffffffffffffffffff163b119050919050565b60405180610100016040528060008152602001606081526020016000815260200160008152602001600081526020016060815260200160608152602001606081525090565b6000604051905090565b600080fd5b600080fd5b60007fffffffff0000000000000000000000000000000000000000000000000000000082169050919050565b6121e2816121ad565b81146121ed57600080fd5b50565b6000813590506121ff816121d9565b92915050565b60006020828403121561221b5761221a6121a3565b5b6000612229848285016121f0565b91505092915050565b60008115159050919050565b61224781612232565b82525050565b6000602082019050612262600083018461223e565b92915050565b600081519050919050565b600082825260208201905092915050565b60005b838110156122a2578082015181840152602081019050612287565b60008484015250505050565b6000601f19601f8301169050919050565b60006122ca82612268565b6122d48185612273565b93506122e4818560208601612284565b6122ed816122ae565b840191505092915050565b6000602082019050818103600083015261231281846122bf565b905092915050565b6000819050919050565b61232d8161231a565b811461233857600080fd5b50565b60008135905061234a81612324565b92915050565b600060208284031215612366576123656121a3565b5b60006123748482850161233b565b91505092915050565b600073ffffffffffffffffffffffffffffffffffffffff82169050919050565b60006123a88261237d565b9050919050565b6123b88161239d565b82525050565b60006020820190506123d360008301846123af565b92915050565b6123e28161239d565b81146123ed57600080fd5b50565b6000813590506123ff816123d9565b92915050565b6000806040838503121561241c5761241b6121a3565b5b600061242a858286016123f0565b925050602061243b8582860161233b565b9150509250929050565b600081519050919050565b600082825260208201905092915050565b6000819050602082019050919050565b61247a8161231a565b82525050565b600061248c8383612471565b60208301905092915050565b6000602082019050919050565b60006124b082612445565b6124ba8185612450565b93506124c583612461565b8060005b838110156124f65781516124dd8882612480565b97506124e883612498565b9250506001810190506124c9565b5085935050505092915050565b6000602082019050818103600083015261251d81846124a5565b905092915050565b61252e8161231a565b82525050565b60006020820190506125496000830184612525565b92915050565b60008060408385031215612566576125656121a3565b5b60006125748582860161233b565b92505060206125858582860161233b565b9150509250929050565b6000806000606084860312156125a8576125a76121a3565b5b60006125b6868287016123f0565b93505060206125c7868287016123f0565b92505060406125d88682870161233b565b9150509250925092565b6000602082840312156125f8576125f76121a3565b5b6000612606848285016123f0565b91505092915050565b600082825260208201905092915050565b600061262b82612268565b612635818561260f565b9350612645818560208601612284565b61264e816122ae565b840191505092915050565b6000610100830160008301516126726000860182612471565b506020830151848203602086015261268a8282612620565b915050604083015161269f6040860182612471565b5060608301516126b26060860182612471565b5060808301516126c56080860182612471565b5060a083015184820360a08601526126dd8282612620565b91505060c083015184820360c08601526126f78282612620565b91505060e083015184820360e08601526127118282612620565b9150508091505092915050565b600060208201905081810360008301526127388184612659565b905092915050565b600080fd5b600080fd5b7f4e487b7100000000000000000000000000000000000000000000000000000000600052604160045260246000fd5b612782826122ae565b810181811067ffffffffffffffff821117156127a1576127a061274a565b5b80604052505050565b60006127b4612199565b90506127c08282612779565b919050565b600067ffffffffffffffff8211156127e0576127df61274a565b5b6127e9826122ae565b9050602081019050919050565b82818337600083830152505050565b6000612818612813846127c5565b6127aa565b90508281526020810184848401111561283457612833612745565b5b61283f8482856127f6565b509392505050565b600082601f83011261285c5761285b612740565b5b813561286c848260208601612805565b91505092915050565b60008060008060008060c08789031215612892576128916121a3565b5b600087013567ffffffffffffffff8111156128b0576128af6121a8565b5b6128bc89828a01612847565b96505060206128cd89828a0161233b565b95505060406128de89828a0161233b565b945050606087013567ffffffffffffffff8111156128ff576128fe6121a8565b5b61290b89828a01612847565b935050608087013567ffffffffffffffff81111561292c5761292b6121a8565b5b61293889828a01612847565b92505060a087013567ffffffffffffffff811115612959576129586121a8565b5b61296589828a01612847565b9150509295509295509295565b60008060408385031215612989576129886121a3565b5b60006129978582860161233b565b92505060206129a8858286016123f0565b9150509250929050565b6129bb81612232565b81146129c657600080fd5b50565b6000813590506129d8816129b2565b92915050565b600080604083850312156129f5576129f46121a3565b5b6000612a03858286016123f0565b9250506020612a14858286016129c9565b9150509250929050565b600067ffffffffffffffff821115612a3957612a3861274a565b5b612a42826122ae565b9050602081019050919050565b6000612a62612a5d84612a1e565b6127aa565b905082815260208101848484011115612a7e57612a7d612745565b5b612a898482856127f6565b509392505050565b600082601f830112612aa657612aa5612740565b5b8135612ab6848260208601612a4f565b91505092915050565b60008060008060808587031215612ad957612ad86121a3565b5b6000612ae7878288016123f0565b9450506020612af8878288016123f0565b9350506040612b098782880161233b565b925050606085013567ffffffffffffffff811115612b2a57612b296121a8565b5b612b3687828801612a91565b91505092959194509250565b60008060408385031215612b5957612b586121a3565b5b6000612b67858286016123f0565b9250506020612b78858286016123f0565b9150509250929050565b7f4e487b7100000000000000000000000000000000000000000000000000000000600052602260045260246000fd5b60006002820490506001821680612bc957607f821691505b602082108103612bdc57612bdb612b82565b5b50919050565b7f4552433732313a20617070726f76616c20746f2063757272656e74206f776e6560008201527f7200000000000000000000000000000000000000000000000000000000000000602082015250565b6000612c3e602183612273565b9150612c4982612be2565b604082019050919050565b60006020820190508181036000830152612c6d81612c31565b9050919050565b7f4552433732313a20617070726f76652063616c6c6572206973206e6f7420746f60008201527f6b656e206f776e6572206f7220617070726f76656420666f7220616c6c000000602082015250565b6000612cd0603d83612273565b9150612cdb82612c74565b604082019050919050565b60006020820190508181036000830152612cff81612cc3565b9050919050565b7f4e487b7100000000000000000000000000000000000000000000000000000000600052601160045260246000fd5b6000612d408261231a565b9150612d4b8361231a565b9250828203905081811115612d6357612d62612d06565b5b92915050565b6000612d748261231a565b91507fffffffffffffffffffffffffffffffffffffffffffffffffffffffffffffffff8203612da657612da5612d06565b5b600182019050919050565b7f4552433732313a2063616c6c6572206973206e6f7420746f6b656e206f776e6560008201527f72206f7220617070726f76656400000000000000000000000000000000000000602082015250565b6000612e0d602d83612273565b9150612e1882612db1565b604082019050919050565b60006020820190508181036000830152612e3c81612e00565b9050919050565b600081905092915050565b50565b6000612e5e600083612e43565b9150612e6982612e4e565b600082019050919050565b6000612e7f82612e51565b9150819050919050565b7f4552433732313a20696e76616c696420746f6b656e2049440000000000000000600082015250565b6000612ebf601883612273565b9150612eca82612e89565b602082019050919050565b60006020820190508181036000830152612eee81612eb2565b9050919050565b7f4552433732313a2061646472657373207a65726f206973206e6f74206120766160008201527f6c6964206f776e65720000000000000000000000000000000000000000000000602082015250565b6000612f51602983612273565b9150612f5c82612ef5565b604082019050919050565b60006020820190508181036000830152612f8081612f44565b9050919050565b60008190508160005260206000209050919050565b60006020601f8301049050919050565b600082821b905092915050565b600060088302612fe97fffffffffffffffffffffffffffffffffffffffffffffffffffffffffffffffff82612fac565b612ff38683612fac565b95508019841693508086168417925050509392505050565b6000819050919050565b600061303061302b6130268461231a565b61300b565b61231a565b9050919050565b6000819050919050565b61304a83613015565b61305e61305682613037565b848454612fb9565b825550505050565b600090565b613073613066565b61307e818484613041565b505050565b5b818110156130a25761309760008261306b565b600181019050613084565b5050565b601f8211156130e7576130b881612f87565b6130c184612f9c565b810160208510156130d0578190505b6130e46130dc85612f9c565b830182613083565b50505b505050565b600082821c905092915050565b600061310a600019846008026130ec565b1980831691505092915050565b600061312383836130f9565b9150826002028217905092915050565b61313c82612268565b67ffffffffffffffff8111156131555761315461274a565b5b61315f8254612bb1565b61316a8282856130a6565b600060209050601f83116001811461319d576000841561318b578287015190505b6131958582613117565b8655506131fd565b601f1984166131ab86612f87565b60005b828110156131d3578489015182556001820191506020850194506020810190506131ae565b868310156131f057848901516131ec601f8916826130f9565b8355505b6001600288020188555050505b505050505050565b600081905092915050565b600061321b82612268565b6132258185613205565b9350613235818560208601612284565b80840191505092915050565b600061324d8285613210565b91506132598284613210565b91508190509392505050565b7f4552433732313a207472616e736665722066726f6d20696e636f72726563742060008201527f6f776e6572000000000000000000000000000000000000000000000000000000602082015250565b60006132c1602583612273565b91506132cc82613265565b604082019050919050565b600060208201905081810360008301526132f0816132b4565b9050919050565b7f4552433732313a207472616e7366657220746f20746865207a65726f2061646460008201527f7265737300000000000000000000000000000000000000000000000000000000602082015250565b6000613353602483612273565b915061335e826132f7565b604082019050919050565b6000602082019050818103600083015261338281613346565b9050919050565b7f4552433732313a20617070726f766520746f2063616c6c657200000000000000600082015250565b60006133bf601983612273565b91506133ca82613389565b602082019050919050565b600060208201905081810360008301526133ee816133b2565b9050919050565b7f4552433732313a207472616e7366657220746f206e6f6e20455243373231526560008201527f63656976657220696d706c656d656e7465720000000000000000000000000000602082015250565b6000613451603283612273565b915061345c826133f5565b604082019050919050565b6000602082019050818103600083015261348081613444565b9050919050565b7f4e487b7100000000000000000000000000000000000000000000000000000000600052601260045260246000fd5b600081519050919050565b600082825260208201905092915050565b60006134dd826134b6565b6134e781856134c1565b93506134f7818560208601612284565b613500816122ae565b840191505092915050565b600060808201905061352060008301876123af565b61352d60208301866123af565b61353a6040830185612525565b818103606083015261354c81846134d2565b905095945050505050565b600081519050613566816121d9565b92915050565b600060208284031215613582576135816121a3565b5b600061359084828501613557565b91505092915050565b7f4552433732313a206d696e7420746f20746865207a65726f2061646472657373600082015250565b60006135cf602083612273565b91506135da82613599565b602082019050919050565b600060208201905081810360008301526135fe816135c2565b9050919050565b7f4552433732313a20746f6b656e20616c7265616479206d696e74656400000000600082015250565b600061363b601c83612273565b915061364682613605565b602082019050919050565b6000602082019050818103600083015261366a8161362e565b905091905056fea264697066735822122098d775e356b38e31abfafca12270da841729a4a2cc22ba3abfd54eb3ed32f6db64736f6c63430008110033",
  "linkReferences": {},
  "deployedLinkReferences": {}
}